{
  "_format": "hh-sol-artifact-1",
  "contractName": "SmartEvidenceContract",
  "sourceName": "contracts/Lock.sol",
  "abi": [
    {
      "anonymous": false,
      "inputs": [
        {
          "indexed": false,
          "internalType": "string",
          "name": "id",
          "type": "string"
        },
        {
          "indexed": false,
          "internalType": "string",
          "name": "hash",
          "type": "string"
        },
        {
          "indexed": false,
          "internalType": "uint256",
          "name": "timestamp",
          "type": "uint256"
        },
        {
          "indexed": false,
          "internalType": "address",
          "name": "collector",
          "type": "address"
        },
        {
          "indexed": false,
          "internalType": "string",
          "name": "location",
          "type": "string"
        }
      ],
      "name": "EvidenceCollected",
      "type": "event"
    },
    {
      "anonymous": false,
      "inputs": [
        {
          "indexed": false,
          "internalType": "string",
          "name": "id",
          "type": "string"
        }
      ],
      "name": "EvidenceTampered",
      "type": "event"
    },
    {
      "inputs": [
        {
          "internalType": "string",
          "name": "_id",
          "type": "string"
        },
        {
          "internalType": "string",
          "name": "_hash",
          "type": "string"
        },
        {
          "internalType": "string",
          "name": "_location",
          "type": "string"
        }
      ],
      "name": "collectEvidence",
      "outputs": [],
      "stateMutability": "nonpayable",
      "type": "function"
    },
    {
      "inputs": [
        {
          "internalType": "string",
          "name": "",
          "type": "string"
        }
      ],
      "name": "evidenceRecords",
      "outputs": [
        {
          "internalType": "string",
          "name": "id",
          "type": "string"
        },
        {
          "internalType": "string",
          "name": "hash",
          "type": "string"
        },
        {
          "internalType": "uint256",
          "name": "timestamp",
          "type": "uint256"
        },
        {
          "internalType": "address",
          "name": "collector",
          "type": "address"
        },
        {
          "internalType": "string",
          "name": "location",
          "type": "string"
        },
        {
          "internalType": "bool",
          "name": "isTampered",
          "type": "bool"
        }
      ],
      "stateMutability": "view",
      "type": "function"
    },
    {
      "inputs": [
        {
          "internalType": "string",
          "name": "_id",
          "type": "string"
        }
      ],
      "name": "flagAsTampered",
      "outputs": [],
      "stateMutability": "nonpayable",
      "type": "function"
    }
  ],
  "bytecode": "0x6080604052348015600f57600080fd5b50610df78061001f6000396000f3fe608060405234801561001057600080fd5b50600436106100415760003560e01c8063221ec0b41461004657806339ed370e1461006257806373169e3314610097575b600080fd5b610060600480360381019061005b91906106d4565b6100b3565b005b61007c600480360381019061007791906106d4565b610196565b60405161008e96959493929190610811565b60405180910390f35b6100b160048036038101906100ac9190610887565b6103ad565b005b600080826040516100c4919061096a565b908152602001604051809103902060000180546100e0906109b0565b905011610122576040517f08c379a000000000000000000000000000000000000000000000000000000000815260040161011990610a2d565b60405180910390fd5b6001600082604051610134919061096a565b908152602001604051809103902060050160006101000a81548160ff0219169083151502179055507f1fc6ae949fa0a8dc9f219dab73297b82d9f97d7546ec42c760f84ff78d7590d98160405161018b9190610a4d565b60405180910390a150565b6000818051602081018201805184825260208301602085012081835280955050505050506000915090508060000180546101cf906109b0565b80601f01602080910402602001604051908101604052809291908181526020018280546101fb906109b0565b80156102485780601f1061021d57610100808354040283529160200191610248565b820191906000526020600020905b81548152906001019060200180831161022b57829003601f168201915b50505050509080600101805461025d906109b0565b80601f0160208091040260200160405190810160405280929190818152602001828054610289906109b0565b80156102d65780601f106102ab576101008083540402835291602001916102d6565b820191906000526020600020905b8154815290600101906020018083116102b957829003601f168201915b5050505050908060020154908060030160009054906101000a900473ffffffffffffffffffffffffffffffffffffffff1690806004018054610317906109b0565b80601f0160208091040260200160405190810160405280929190818152602001828054610343906109b0565b80156103905780601f1061036557610100808354040283529160200191610390565b820191906000526020600020905b81548152906001019060200180831161037357829003601f168201915b5050505050908060050160009054906101000a900460ff16905086565b600080846040516103be919061096a565b908152602001604051809103902060000180546103da906109b0565b90501461041c576040517f08c379a000000000000000000000000000000000000000000000000000000000815260040161041390610abb565b60405180910390fd5b6040518060c001604052808481526020018381526020014281526020013373ffffffffffffffffffffffffffffffffffffffff16815260200182815260200160001515815250600084604051610472919061096a565b908152602001604051809103902060008201518160000190816104959190610c87565b5060208201518160010190816104ab9190610c87565b506040820151816002015560608201518160030160006101000a81548173ffffffffffffffffffffffffffffffffffffffff021916908373ffffffffffffffffffffffffffffffffffffffff16021790555060808201518160040190816105129190610c87565b5060a08201518160050160006101000a81548160ff0219169083151502179055509050507f62a698af34e9951f6463771c7253f97228d9e5df37612cc3aff0ba68728d2228838342338560405161056d959493929190610d59565b60405180910390a1505050565b6000604051905090565b600080fd5b600080fd5b600080fd5b600080fd5b6000601f19601f8301169050919050565b7f4e487b7100000000000000000000000000000000000000000000000000000000600052604160045260246000fd5b6105e182610598565b810181811067ffffffffffffffff82111715610600576105ff6105a9565b5b80604052505050565b600061061361057a565b905061061f82826105d8565b919050565b600067ffffffffffffffff82111561063f5761063e6105a9565b5b61064882610598565b9050602081019050919050565b82818337600083830152505050565b600061067761067284610624565b610609565b90508281526020810184848401111561069357610692610593565b5b61069e848285610655565b509392505050565b600082601f8301126106bb576106ba61058e565b5b81356106cb848260208601610664565b91505092915050565b6000602082840312156106ea576106e9610584565b5b600082013567ffffffffffffffff81111561070857610707610589565b5b610714848285016106a6565b91505092915050565b600081519050919050565b600082825260208201905092915050565b60005b8381101561075757808201518184015260208101905061073c565b60008484015250505050565b600061076e8261071d565b6107788185610728565b9350610788818560208601610739565b61079181610598565b840191505092915050565b6000819050919050565b6107af8161079c565b82525050565b600073ffffffffffffffffffffffffffffffffffffffff82169050919050565b60006107e0826107b5565b9050919050565b6107f0816107d5565b82525050565b60008115159050919050565b61080b816107f6565b82525050565b600060c082019050818103600083015261082b8189610763565b9050818103602083015261083f8188610763565b905061084e60408301876107a6565b61085b60608301866107e7565b818103608083015261086d8185610763565b905061087c60a0830184610802565b979650505050505050565b6000806000606084860312156108a05761089f610584565b5b600084013567ffffffffffffffff8111156108be576108bd610589565b5b6108ca868287016106a6565b935050602084013567ffffffffffffffff8111156108eb576108ea610589565b5b6108f7868287016106a6565b925050604084013567ffffffffffffffff81111561091857610917610589565b5b610924868287016106a6565b9150509250925092565b600081905092915050565b60006109448261071d565b61094e818561092e565b935061095e818560208601610739565b80840191505092915050565b60006109768284610939565b915081905092915050565b7f4e487b7100000000000000000000000000000000000000000000000000000000600052602260045260246000fd5b600060028204905060018216806109c857607f821691505b6020821081036109db576109da610981565b5b50919050565b7f45766964656e636520494420646f6573206e6f74206578697374000000000000600082015250565b6000610a17601a83610728565b9150610a22826109e1565b602082019050919050565b60006020820190508181036000830152610a4681610a0a565b9050919050565b60006020820190508181036000830152610a678184610763565b905092915050565b7f45766964656e636520494420616c726561647920657869737473000000000000600082015250565b6000610aa5601a83610728565b9150610ab082610a6f565b602082019050919050565b60006020820190508181036000830152610ad481610a98565b9050919050565b60008190508160005260206000209050919050565b60006020601f8301049050919050565b600082821b905092915050565b600060088302610b3d7fffffffffffffffffffffffffffffffffffffffffffffffffffffffffffffffff82610b00565b610b478683610b00565b95508019841693508086168417925050509392505050565b6000819050919050565b6000610b84610b7f610b7a8461079c565b610b5f565b61079c565b9050919050565b6000819050919050565b610b9e83610b69565b610bb2610baa82610b8b565b848454610b0d565b825550505050565b600090565b610bc7610bba565b610bd2818484610b95565b505050565b5b81811015610bf657610beb600082610bbf565b600181019050610bd8565b5050565b601f821115610c3b57610c0c81610adb565b610c1584610af0565b81016020851015610c24578190505b610c38610c3085610af0565b830182610bd7565b50505b505050565b600082821c905092915050565b6000610c5e60001984600802610c40565b1980831691505092915050565b6000610c778383610c4d565b9150826002028217905092915050565b610c908261071d565b67ffffffffffffffff811115610ca957610ca86105a9565b5b610cb382546109b0565b610cbe828285610bfa565b600060209050601f831160018114610cf15760008415610cdf578287015190505b610ce98582610c6b565b865550610d51565b601f198416610cff86610adb565b60005b82811015610d2757848901518255600182019150602085019450602081019050610d02565b86831015610d445784890151610d40601f891682610c4d565b8355505b6001600288020188555050505b505050505050565b600060a0820190508181036000830152610d738188610763565b90508181036020830152610d878187610763565b9050610d9660408301866107a6565b610da360608301856107e7565b8181036080830152610db58184610763565b9050969550505050505056fea26469706673582212203fb92bab6da50269c3e38cc36c0e2c8190452b126f5370350453204246aa419064736f6c634300081c0033",
  "linkReferences": {},
  "deployedLinkReferences": {}
}